:1000000033C0000044C0000042C0000040C00000F7
:100010003EC000003CC000003AC0000038C00000F4
:1000200036C0000034C0000032C0000030C0000004
:100030002EC000002CC000002AC0000028C0000014
:1000400026C0000024C0000022C0000020C0000024
:100050001EC000001CC000001AC0000018C0000034
:1000600016C0000014C0000011241FBECFEFD8E05E
:10007000DEBFCDBF11E0A0E0B1E0ECEDF2E002C0E8
:1000800005900D92A031B107D9F7EED025C1B8CFB8
:1000900095B184B180628F7784B9892F806A85B9E0
:1000A00008959093C5008093C4008EE08093C200B1
:1000B0000895E0ECF0E0908195FFFDCF8093C600BD
:1000C0000895CF93DF93EC018881882329F021964E
:1000D000F0DF89918111FCCFDF91CF910895CF930B
:1000E000DF9300D0CDB7DEB71A821982AAE7B0E05D
:1000F0009C9197609C93ECE7F0E09081907F9083D7
:100100009081906490839081892B80838C91806C06
:100110008C93EAE7F0E0808184FFFDCF8091780046
:10012000909179009A838983EAE7F0E08081806189
:10013000808389819A810F900F90DF91CF910895EC
:10014000EF92FF920F931F93CF93DF93EB01C7DFE3
:10015000FC019C01ADECBCECB0D0AC0156954795D0
:1001600056954795569547959A01220F331FCA0118
:10017000880F991F880F991F880F991F820F931F4F
:100180008F01081B190B9A0198D096958795969523
:100190008795969587959C01220F331F880F991F8D
:1001A000880F991F880F991F820F931F481B590BA7
:1001B0009F013695279536952795ABE7B4E17DD01D
:1001C0007C01F694E7949701ADECBCEC76D0969563
:1001D000879596958795969587959C01220F331F55
:1001E000880F991F880F991F880F991F820F931FDF
:1001F000E81AF90A9F013695279536952795369581
:100200002795A5ECB0E259D0929582958F708927F9
:100210009F708927005D405D20E32E0D805D209753
:1002200039F4E0E0F1E0808321834283038312C04C
:10023000C130D10539F4E0E0F1E0858326834783BE
:10024000008708C0229731F4E0E0F1E0828723873D
:100250004487058780E091E034DFDF91CF911F91E3
:100260000F91FF90EF90089513DF87E690E019DF7C
:10027000549A2FE986E891E0215080409040E1F7C0
:1002800000C000005C982FE986E891E02150804092
:100290009040E1F700C000005C9A60E070E080E010
:1002A00090E04EDF61E070E081E090E049DF62E0E5
:1002B00070E082E090E044DFDCCFA29FB001B39F0A
:1002C000C001A39F700D811D1124911DB29F700D5F
:0C02D000811D1124911D0895F894FFCFAA
:1002DC00303030302C303030302C303030300A0070
:00000001FF
